{
  "contractName": "NFTMarketplace",
  "abi": [
    {
      "anonymous": false,
      "inputs": [
        {
          "indexed": false,
          "internalType": "address",
          "name": "buyer",
          "type": "address"
        },
        {
          "indexed": false,
          "internalType": "uint256",
          "name": "nftIndex",
          "type": "uint256"
        }
      ],
      "name": "NFTPurchased",
      "type": "event"
    },
    {
      "inputs": [
        {
          "internalType": "address",
          "name": "",
          "type": "address"
        }
      ],
      "name": "association",
      "outputs": [
        {
          "internalType": "uint256",
          "name": "purchasedCount",
          "type": "uint256"
        }
      ],
      "stateMutability": "view",
      "type": "function",
      "constant": true
    },
    {
      "inputs": [
        {
          "internalType": "uint256",
          "name": "",
          "type": "uint256"
        }
      ],
      "name": "nfts",
      "outputs": [
        {
          "internalType": "string",
          "name": "name",
          "type": "string"
        },
        {
          "internalType": "string",
          "name": "image",
          "type": "string"
        },
        {
          "internalType": "uint256",
          "name": "price",
          "type": "uint256"
        },
        {
          "internalType": "address",
          "name": "owner",
          "type": "address"
        }
      ],
      "stateMutability": "view",
      "type": "function",
      "constant": true
    },
    {
      "inputs": [
        {
          "internalType": "string",
          "name": "name",
          "type": "string"
        },
        {
          "internalType": "string",
          "name": "image",
          "type": "string"
        },
        {
          "internalType": "uint256",
          "name": "price",
          "type": "uint256"
        }
      ],
      "name": "addNFT",
      "outputs": [],
      "stateMutability": "nonpayable",
      "type": "function"
    },
    {
      "inputs": [
        {
          "internalType": "uint256",
          "name": "nftIndex",
          "type": "uint256"
        }
      ],
      "name": "buyNFT",
      "outputs": [],
      "stateMutability": "payable",
      "type": "function",
      "payable": true
    },
    {
      "inputs": [],
      "name": "getNFTCount",
      "outputs": [
        {
          "internalType": "uint256",
          "name": "",
          "type": "uint256"
        }
      ],
      "stateMutability": "view",
      "type": "function",
      "constant": true
    },
    {
      "inputs": [],
      "name": "getNFTs",
      "outputs": [
        {
          "components": [
            {
              "internalType": "string",
              "name": "name",
              "type": "string"
            },
            {
              "internalType": "string",
              "name": "image",
              "type": "string"
            },
            {
              "internalType": "uint256",
              "name": "price",
              "type": "uint256"
            },
            {
              "internalType": "address",
              "name": "owner",
              "type": "address"
            }
          ],
          "internalType": "struct NFTMarketplace.NFT[]",
          "name": "",
          "type": "tuple[]"
        }
      ],
      "stateMutability": "view",
      "type": "function",
      "constant": true
    },
    {
      "inputs": [
        {
          "internalType": "uint256",
          "name": "nftIndex",
          "type": "uint256"
        }
      ],
      "name": "getNFTbyIndex",
      "outputs": [
        {
          "internalType": "string",
          "name": "",
          "type": "string"
        },
        {
          "internalType": "string",
          "name": "",
          "type": "string"
        },
        {
          "internalType": "uint256",
          "name": "",
          "type": "uint256"
        },
        {
          "internalType": "address",
          "name": "",
          "type": "address"
        }
      ],
      "stateMutability": "view",
      "type": "function",
      "constant": true
    },
    {
      "inputs": [
        {
          "internalType": "address",
          "name": "sender",
          "type": "address"
        }
      ],
      "name": "getNFTsByOwner",
      "outputs": [
        {
          "components": [
            {
              "internalType": "string",
              "name": "name",
              "type": "string"
            },
            {
              "internalType": "string",
              "name": "image",
              "type": "string"
            },
            {
              "internalType": "uint256",
              "name": "price",
              "type": "uint256"
            },
            {
              "internalType": "address",
              "name": "owner",
              "type": "address"
            }
          ],
          "internalType": "struct NFTMarketplace.NFT[]",
          "name": "",
          "type": "tuple[]"
        }
      ],
      "stateMutability": "view",
      "type": "function",
      "constant": true
    }
  ],
  "bytecode": "0x608060405234801561001057600080fd5b506119cf806100206000396000f3fe60806040526004361061007b5760003560e01c806351ed82881161004e57806351ed8288146101545780635427963714610170578063a082646a1461019b578063e2afe8b3146101d85761007b565b8063227212f214610080578063265aa621146100ab57806333ccecd0146100eb578063391044561461012b575b600080fd5b34801561008c57600080fd5b50610095610215565b6040516100a2919061102c565b60405180910390f35b3480156100b757600080fd5b506100d260048036038101906100cd919061108e565b6103f8565b6040516100e29493929190611123565b60405180910390f35b3480156100f757600080fd5b50610112600480360381019061010d919061108e565b610568565b6040516101229493929190611123565b60405180910390f35b34801561013757600080fd5b50610152600480360381019061014d91906112ab565b61078e565b005b61016e6004803603810190610169919061108e565b610875565b005b34801561017c57600080fd5b50610185610bc7565b6040516101929190611336565b60405180910390f35b3480156101a757600080fd5b506101c260048036038101906101bd919061137d565b610bd4565b6040516101cf9190611336565b60405180910390f35b3480156101e457600080fd5b506101ff60048036038101906101fa919061137d565b610bf2565b60405161020c919061102c565b60405180910390f35b60606001805480602002602001604051908101604052809291908181526020016000905b828210156103ef578382906000526020600020906004020160405180608001604052908160008201805461026c906113d9565b80601f0160208091040260200160405190810160405280929190818152602001828054610298906113d9565b80156102e55780601f106102ba576101008083540402835291602001916102e5565b820191906000526020600020905b8154815290600101906020018083116102c857829003601f168201915b505050505081526020016001820180546102fe906113d9565b80601f016020809104026020016040519081016040528092919081815260200182805461032a906113d9565b80156103775780601f1061034c57610100808354040283529160200191610377565b820191906000526020600020905b81548152906001019060200180831161035a57829003601f168201915b50505050508152602001600282015481526020016003820160009054906101000a900473ffffffffffffffffffffffffffffffffffffffff1673ffffffffffffffffffffffffffffffffffffffff1673ffffffffffffffffffffffffffffffffffffffff168152505081526020019060010190610239565b50505050905090565b6001818154811061040857600080fd5b906000526020600020906004020160009150905080600001805461042b906113d9565b80601f0160208091040260200160405190810160405280929190818152602001828054610457906113d9565b80156104a45780601f10610479576101008083540402835291602001916104a4565b820191906000526020600020905b81548152906001019060200180831161048757829003601f168201915b5050505050908060010180546104b9906113d9565b80601f01602080910402602001604051908101604052809291908181526020018280546104e5906113d9565b80156105325780601f1061050757610100808354040283529160200191610532565b820191906000526020600020905b81548152906001019060200180831161051557829003601f168201915b5050505050908060020154908060030160009054906101000a900473ffffffffffffffffffffffffffffffffffffffff16905084565b60608060008060018054905085106105b5576040517f08c379a00000000000000000000000000000000000000000000000000000000081526004016105ac90611456565b60405180910390fd5b6000600186815481106105cb576105ca611476565b5b90600052602060002090600402016040518060800160405290816000820180546105f4906113d9565b80601f0160208091040260200160405190810160405280929190818152602001828054610620906113d9565b801561066d5780601f106106425761010080835404028352916020019161066d565b820191906000526020600020905b81548152906001019060200180831161065057829003601f168201915b50505050508152602001600182018054610686906113d9565b80601f01602080910402602001604051908101604052809291908181526020018280546106b2906113d9565b80156106ff5780601f106106d4576101008083540402835291602001916106ff565b820191906000526020600020905b8154815290600101906020018083116106e257829003601f168201915b50505050508152602001600282015481526020016003820160009054906101000a900473ffffffffffffffffffffffffffffffffffffffff1673ffffffffffffffffffffffffffffffffffffffff1673ffffffffffffffffffffffffffffffffffffffff1681525050905080600001518160200151826040015183606001519450945094509450509193509193565b60016040518060800160405280858152602001848152602001838152602001600073ffffffffffffffffffffffffffffffffffffffff16815250908060018154018082558091505060019003906000526020600020906004020160009091909190915060008201518160000190816108069190611651565b50602082015181600101908161081c9190611651565b506040820151816002015560608201518160030160006101000a81548173ffffffffffffffffffffffffffffffffffffffff021916908373ffffffffffffffffffffffffffffffffffffffff1602179055505050505050565b60018054905081106108bc576040517f08c379a00000000000000000000000000000000000000000000000000000000081526004016108b390611456565b60405180910390fd5b600181815481106108d0576108cf611476565b5b9060005260206000209060040201600201543414610923576040517f08c379a000000000000000000000000000000000000000000000000000000000815260040161091a9061176f565b60405180910390fd5b60026000803373ffffffffffffffffffffffffffffffffffffffff1673ffffffffffffffffffffffffffffffffffffffff16815260200190815260200160002060000154106109a7576040517f08c379a000000000000000000000000000000000000000000000000000000000815260040161099e906117db565b60405180910390fd5b33600182815481106109bc576109bb611476565b5b906000526020600020906004020160030160006101000a81548173ffffffffffffffffffffffffffffffffffffffff021916908373ffffffffffffffffffffffffffffffffffffffff1602179055506000803373ffffffffffffffffffffffffffffffffffffffff1673ffffffffffffffffffffffffffffffffffffffff1681526020019081526020016000206000016000815480929190610a5d9061182a565b91905055506000803373ffffffffffffffffffffffffffffffffffffffff1673ffffffffffffffffffffffffffffffffffffffff16815260200190815260200160002060010160018281548110610ab757610ab6611476565b5b9060005260206000209060040201908060018154018082558091505060019003906000526020600020906004020160009091909190915060008201816000019081610b029190611888565b5060018201816001019081610b179190611888565b50600282015481600201556003820160009054906101000a900473ffffffffffffffffffffffffffffffffffffffff168160030160006101000a81548173ffffffffffffffffffffffffffffffffffffffff021916908373ffffffffffffffffffffffffffffffffffffffff16021790555050507f7f8aed29394d49180b299699236f142fbd3a78f6d1464929dd17e87b73ebc8d23382604051610bbc929190611970565b60405180910390a150565b6000600180549050905090565b60006020528060005260406000206000915090508060000154905081565b60606000808373ffffffffffffffffffffffffffffffffffffffff1673ffffffffffffffffffffffffffffffffffffffff168152602001908152602001600020600101805480602002602001604051908101604052809291908181526020016000905b82821015610e0b5783829060005260206000209060040201604051806080016040529081600082018054610c88906113d9565b80601f0160208091040260200160405190810160405280929190818152602001828054610cb4906113d9565b8015610d015780601f10610cd657610100808354040283529160200191610d01565b820191906000526020600020905b815481529060010190602001808311610ce457829003601f168201915b50505050508152602001600182018054610d1a906113d9565b80601f0160208091040260200160405190810160405280929190818152602001828054610d46906113d9565b8015610d935780601f10610d6857610100808354040283529160200191610d93565b820191906000526020600020905b815481529060010190602001808311610d7657829003601f168201915b50505050508152602001600282015481526020016003820160009054906101000a900473ffffffffffffffffffffffffffffffffffffffff1673ffffffffffffffffffffffffffffffffffffffff1673ffffffffffffffffffffffffffffffffffffffff168152505081526020019060010190610c55565b505050509050919050565b600081519050919050565b600082825260208201905092915050565b6000819050602082019050919050565b600081519050919050565b600082825260208201905092915050565b60005b83811015610e7c578082015181840152602081019050610e61565b60008484015250505050565b6000601f19601f8301169050919050565b6000610ea482610e42565b610eae8185610e4d565b9350610ebe818560208601610e5e565b610ec781610e88565b840191505092915050565b6000819050919050565b610ee581610ed2565b82525050565b600073ffffffffffffffffffffffffffffffffffffffff82169050919050565b6000610f1682610eeb565b9050919050565b610f2681610f0b565b82525050565b60006080830160008301518482036000860152610f498282610e99565b91505060208301518482036020860152610f638282610e99565b9150506040830151610f786040860182610edc565b506060830151610f8b6060860182610f1d565b508091505092915050565b6000610fa28383610f2c565b905092915050565b6000602082019050919050565b6000610fc282610e16565b610fcc8185610e21565b935083602082028501610fde85610e32565b8060005b8581101561101a5784840389528151610ffb8582610f96565b945061100683610faa565b925060208a01995050600181019050610fe2565b50829750879550505050505092915050565b600060208201905081810360008301526110468184610fb7565b905092915050565b6000604051905090565b600080fd5b600080fd5b61106b81610ed2565b811461107657600080fd5b50565b60008135905061108881611062565b92915050565b6000602082840312156110a4576110a3611058565b5b60006110b284828501611079565b91505092915050565b600082825260208201905092915050565b60006110d782610e42565b6110e181856110bb565b93506110f1818560208601610e5e565b6110fa81610e88565b840191505092915050565b61110e81610ed2565b82525050565b61111d81610f0b565b82525050565b6000608082019050818103600083015261113d81876110cc565b9050818103602083015261115181866110cc565b90506111606040830185611105565b61116d6060830184611114565b95945050505050565b600080fd5b600080fd5b7f4e487b7100000000000000000000000000000000000000000000000000000000600052604160045260246000fd5b6111b882610e88565b810181811067ffffffffffffffff821117156111d7576111d6611180565b5b80604052505050565b60006111ea61104e565b90506111f682826111af565b919050565b600067ffffffffffffffff82111561121657611215611180565b5b61121f82610e88565b9050602081019050919050565b82818337600083830152505050565b600061124e611249846111fb565b6111e0565b90508281526020810184848401111561126a5761126961117b565b5b61127584828561122c565b509392505050565b600082601f83011261129257611291611176565b5b81356112a284826020860161123b565b91505092915050565b6000806000606084860312156112c4576112c3611058565b5b600084013567ffffffffffffffff8111156112e2576112e161105d565b5b6112ee8682870161127d565b935050602084013567ffffffffffffffff81111561130f5761130e61105d565b5b61131b8682870161127d565b925050604061132c86828701611079565b9150509250925092565b600060208201905061134b6000830184611105565b92915050565b61135a81610f0b565b811461136557600080fd5b50565b60008135905061137781611351565b92915050565b60006020828403121561139357611392611058565b5b60006113a184828501611368565b91505092915050565b7f4e487b7100000000000000000000000000000000000000000000000000000000600052602260045260246000fd5b600060028204905060018216806113f157607f821691505b602082108103611404576114036113aa565b5b50919050565b7f496e76616c6964204e465420696e646578000000000000000000000000000000600082015250565b60006114406011836110bb565b915061144b8261140a565b602082019050919050565b6000602082019050818103600083015261146f81611433565b9050919050565b7f4e487b7100000000000000000000000000000000000000000000000000000000600052603260045260246000fd5b60008190508160005260206000209050919050565b60006020601f8301049050919050565b600082821b905092915050565b6000600883026115077fffffffffffffffffffffffffffffffffffffffffffffffffffffffffffffffff826114ca565b61151186836114ca565b95508019841693508086168417925050509392505050565b6000819050919050565b600061154e61154961154484610ed2565b611529565b610ed2565b9050919050565b6000819050919050565b61156883611533565b61157c61157482611555565b8484546114d7565b825550505050565b600090565b611591611584565b61159c81848461155f565b505050565b5b818110156115c0576115b5600082611589565b6001810190506115a2565b5050565b601f821115611605576115d6816114a5565b6115df846114ba565b810160208510156115ee578190505b6116026115fa856114ba565b8301826115a1565b50505b505050565b600082821c905092915050565b60006116286000198460080261160a565b1980831691505092915050565b60006116418383611617565b9150826002028217905092915050565b61165a82610e42565b67ffffffffffffffff81111561167357611672611180565b5b61167d82546113d9565b6116888282856115c4565b600060209050601f8311600181146116bb57600084156116a9578287015190505b6116b38582611635565b86555061171b565b601f1984166116c9866114a5565b60005b828110156116f1578489015182556001820191506020850194506020810190506116cc565b8683101561170e578489015161170a601f891682611617565b8355505b6001600288020188555050505b505050505050565b7f496e73756666696369656e742066756e64730000000000000000000000000000600082015250565b60006117596012836110bb565b915061176482611723565b602082019050919050565b600060208201905081810360008301526117888161174c565b9050919050565b7f596f752063616e206f6e6c792070757263686173652074776f204e4654730000600082015250565b60006117c5601e836110bb565b91506117d08261178f565b602082019050919050565b600060208201905081810360008301526117f4816117b8565b9050919050565b7f4e487b7100000000000000000000000000000000000000000000000000000000600052601160045260246000fd5b600061183582610ed2565b91507fffffffffffffffffffffffffffffffffffffffffffffffffffffffffffffffff8203611867576118666117fb565b5b600182019050919050565b600081549050611881816113d9565b9050919050565b81810361189657505061196e565b61189f82611872565b67ffffffffffffffff8111156118b8576118b7611180565b5b6118c282546113d9565b6118cd8282856115c4565b6000601f8311600181146118fc57600084156118ea578287015490505b6118f48582611635565b865550611967565b601f19841661190a876114a5565b9650611915866114a5565b60005b8281101561193d57848901548255600182019150600185019450602081019050611918565b8683101561195a5784890154611956601f891682611617565b8355505b6001600288020188555050505b5050505050505b565b60006040820190506119856000830185611114565b6119926020830184611105565b939250505056fea2646970667358221220e9cc2a608770bfe38f77652083caa38935a9eb3818dcb204d5c00468dd31fbb064736f6c63430008110033",
  "immutableReferences": {},
  "source": "// SPDX-License-Identifier: MIT\npragma solidity >=0.4.22 <0.9.0;\n\ncontract NFTMarketplace {\n  mapping(address => NFTAssociated) public association;\n    struct NFT {\n        string name;\n        string image;\n        uint price;\n        address owner;\n    }\n\n    struct NFTAssociated{\n        uint purchasedCount;\n        NFT[] nfts;\n    }\n    \n    NFT[] public nfts;\n    \n    event NFTPurchased(address buyer, uint nftIndex);\n    \n    function addNFT(string memory name, string memory image, uint price) public {\n        nfts.push(NFT(name, image, price, address(0)));\n    }\n    \n    function buyNFT(uint nftIndex) public payable {\n        require(nftIndex < nfts.length, \"Invalid NFT index\");\n        require(msg.value == nfts[nftIndex].price, \"Insufficient funds\");\n        require(association[msg.sender].purchasedCount < 2, \"You can only purchase two NFTs\");\n        nfts[nftIndex].owner = msg.sender;\n        association[msg.sender].purchasedCount++;\n        association[msg.sender].nfts.push(nfts[nftIndex]);\n        emit NFTPurchased(msg.sender, nftIndex);\n    }\n    \n    function getNFTCount() public view returns (uint) {\n        return nfts.length;\n    }\n\n    function getNFTs() public view returns (NFT[] memory) {\n        return nfts;\n    }\n\n    function getNFTbyIndex(uint nftIndex) public view returns (string memory, string memory, uint, address) {\n        require(nftIndex < nfts.length, \"Invalid NFT index\");\n        NFT memory nft = nfts[nftIndex];\n        return (nft.name, nft.image, nft.price, nft.owner);\n    }\n\n    function getNFTsByOwner(address sender) public view returns (NFT[] memory) {\n        return association[sender].nfts;\n    }\n}\n",
  "sourcePath": "/Users/etiennesecondini/Documents/IIM/nft/solidity/contracts/NFTMarketplace.sol",
  "compiler": {
    "name": "solc",
    "version": "0.8.17+commit.8df45f5f.Emscripten.clang"
  },
  "schemaVersion": "3.4.13",
  "updatedAt": "2023-04-06T14:45:57.086Z",
  "networkType": "ethereum",
  "devdoc": {
    "kind": "dev",
    "methods": {},
    "version": 1
  },
  "userdoc": {
    "kind": "user",
    "methods": {},
    "version": 1
  }
}