{
  "contractName": "NFTMarketplace",
  "abi": [
    {
      "anonymous": false,
      "inputs": [
        {
          "indexed": false,
          "internalType": "address",
          "name": "buyer",
          "type": "address"
        },
        {
          "indexed": false,
          "internalType": "uint256",
          "name": "nftIndex",
          "type": "uint256"
        }
      ],
      "name": "NFTPurchased",
      "type": "event"
    },
    {
      "inputs": [
        {
          "internalType": "uint256",
          "name": "",
          "type": "uint256"
        }
      ],
      "name": "nfts",
      "outputs": [
        {
          "internalType": "string",
          "name": "name",
          "type": "string"
        },
        {
          "internalType": "string",
          "name": "image",
          "type": "string"
        },
        {
          "internalType": "uint256",
          "name": "price",
          "type": "uint256"
        }
      ],
      "stateMutability": "view",
      "type": "function",
      "constant": true
    },
    {
      "inputs": [
        {
          "internalType": "address",
          "name": "",
          "type": "address"
        }
      ],
      "name": "purchasedCount",
      "outputs": [
        {
          "internalType": "uint256",
          "name": "",
          "type": "uint256"
        }
      ],
      "stateMutability": "view",
      "type": "function",
      "constant": true
    },
    {
      "inputs": [
        {
          "internalType": "string",
          "name": "name",
          "type": "string"
        },
        {
          "internalType": "string",
          "name": "image",
          "type": "string"
        },
        {
          "internalType": "uint256",
          "name": "price",
          "type": "uint256"
        }
      ],
      "name": "addNFT",
      "outputs": [],
      "stateMutability": "nonpayable",
      "type": "function"
    },
    {
      "inputs": [
        {
          "internalType": "uint256",
          "name": "nftIndex",
          "type": "uint256"
        }
      ],
      "name": "buyNFT",
      "outputs": [],
      "stateMutability": "payable",
      "type": "function",
      "payable": true
    },
    {
      "inputs": [],
      "name": "getNFTCount",
      "outputs": [
        {
          "internalType": "uint256",
          "name": "",
          "type": "uint256"
        }
      ],
      "stateMutability": "view",
      "type": "function",
      "constant": true
    }
  ],
  "bytecode": "0x608060405234801561001057600080fd5b50610de3806100206000396000f3fe60806040526004361061004a5760003560e01c8063265aa6211461004f578063391044561461008e57806351ed8288146100b757806354279637146100d3578063ba2a0655146100fe575b600080fd5b34801561005b57600080fd5b5061007660048036038101906100719190610536565b61013b565b60405161008593929190610602565b60405180910390f35b34801561009a57600080fd5b506100b560048036038101906100b0919061077c565b610285565b005b6100d160048036038101906100cc9190610536565b610308565b005b3480156100df57600080fd5b506100e86104c7565b6040516100f59190610807565b60405180910390f35b34801561010a57600080fd5b5061012560048036038101906101209190610880565b6104d4565b6040516101329190610807565b60405180910390f35b6001818154811061014b57600080fd5b906000526020600020906003020160009150905080600001805461016e906108dc565b80601f016020809104026020016040519081016040528092919081815260200182805461019a906108dc565b80156101e75780601f106101bc576101008083540402835291602001916101e7565b820191906000526020600020905b8154815290600101906020018083116101ca57829003601f168201915b5050505050908060010180546101fc906108dc565b80601f0160208091040260200160405190810160405280929190818152602001828054610228906108dc565b80156102755780601f1061024a57610100808354040283529160200191610275565b820191906000526020600020905b81548152906001019060200180831161025857829003601f168201915b5050505050908060020154905083565b6001604051806060016040528085815260200184815260200183815250908060018154018082558091505060019003906000526020600020906003020160009091909190915060008201518160000190816102e09190610ab9565b5060208201518160010190816102f69190610ab9565b50604082015181600201555050505050565b600180549050811061034f576040517f08c379a000000000000000000000000000000000000000000000000000000000815260040161034690610bd7565b60405180910390fd5b6001818154811061036357610362610bf7565b5b90600052602060002090600302016002015434146103b6576040517f08c379a00000000000000000000000000000000000000000000000000000000081526004016103ad90610c72565b60405180910390fd5b60026000803373ffffffffffffffffffffffffffffffffffffffff1673ffffffffffffffffffffffffffffffffffffffff1681526020019081526020016000205410610437576040517f08c379a000000000000000000000000000000000000000000000000000000000815260040161042e90610cde565b60405180910390fd5b6000803373ffffffffffffffffffffffffffffffffffffffff1673ffffffffffffffffffffffffffffffffffffffff168152602001908152602001600020600081548092919061048690610d2d565b91905055507f7f8aed29394d49180b299699236f142fbd3a78f6d1464929dd17e87b73ebc8d233826040516104bc929190610d84565b60405180910390a150565b6000600180549050905090565b60006020528060005260406000206000915090505481565b6000604051905090565b600080fd5b600080fd5b6000819050919050565b61051381610500565b811461051e57600080fd5b50565b6000813590506105308161050a565b92915050565b60006020828403121561054c5761054b6104f6565b5b600061055a84828501610521565b91505092915050565b600081519050919050565b600082825260208201905092915050565b60005b8381101561059d578082015181840152602081019050610582565b60008484015250505050565b6000601f19601f8301169050919050565b60006105c582610563565b6105cf818561056e565b93506105df81856020860161057f565b6105e8816105a9565b840191505092915050565b6105fc81610500565b82525050565b6000606082019050818103600083015261061c81866105ba565b9050818103602083015261063081856105ba565b905061063f60408301846105f3565b949350505050565b600080fd5b600080fd5b7f4e487b7100000000000000000000000000000000000000000000000000000000600052604160045260246000fd5b610689826105a9565b810181811067ffffffffffffffff821117156106a8576106a7610651565b5b80604052505050565b60006106bb6104ec565b90506106c78282610680565b919050565b600067ffffffffffffffff8211156106e7576106e6610651565b5b6106f0826105a9565b9050602081019050919050565b82818337600083830152505050565b600061071f61071a846106cc565b6106b1565b90508281526020810184848401111561073b5761073a61064c565b5b6107468482856106fd565b509392505050565b600082601f83011261076357610762610647565b5b813561077384826020860161070c565b91505092915050565b600080600060608486031215610795576107946104f6565b5b600084013567ffffffffffffffff8111156107b3576107b26104fb565b5b6107bf8682870161074e565b935050602084013567ffffffffffffffff8111156107e0576107df6104fb565b5b6107ec8682870161074e565b92505060406107fd86828701610521565b9150509250925092565b600060208201905061081c60008301846105f3565b92915050565b600073ffffffffffffffffffffffffffffffffffffffff82169050919050565b600061084d82610822565b9050919050565b61085d81610842565b811461086857600080fd5b50565b60008135905061087a81610854565b92915050565b600060208284031215610896576108956104f6565b5b60006108a48482850161086b565b91505092915050565b7f4e487b7100000000000000000000000000000000000000000000000000000000600052602260045260246000fd5b600060028204905060018216806108f457607f821691505b602082108103610907576109066108ad565b5b50919050565b60008190508160005260206000209050919050565b60006020601f8301049050919050565b600082821b905092915050565b60006008830261096f7fffffffffffffffffffffffffffffffffffffffffffffffffffffffffffffffff82610932565b6109798683610932565b95508019841693508086168417925050509392505050565b6000819050919050565b60006109b66109b16109ac84610500565b610991565b610500565b9050919050565b6000819050919050565b6109d08361099b565b6109e46109dc826109bd565b84845461093f565b825550505050565b600090565b6109f96109ec565b610a048184846109c7565b505050565b5b81811015610a2857610a1d6000826109f1565b600181019050610a0a565b5050565b601f821115610a6d57610a3e8161090d565b610a4784610922565b81016020851015610a56578190505b610a6a610a6285610922565b830182610a09565b50505b505050565b600082821c905092915050565b6000610a9060001984600802610a72565b1980831691505092915050565b6000610aa98383610a7f565b9150826002028217905092915050565b610ac282610563565b67ffffffffffffffff811115610adb57610ada610651565b5b610ae582546108dc565b610af0828285610a2c565b600060209050601f831160018114610b235760008415610b11578287015190505b610b1b8582610a9d565b865550610b83565b601f198416610b318661090d565b60005b82811015610b5957848901518255600182019150602085019450602081019050610b34565b86831015610b765784890151610b72601f891682610a7f565b8355505b6001600288020188555050505b505050505050565b7f496e76616c6964204e465420696e646578000000000000000000000000000000600082015250565b6000610bc160118361056e565b9150610bcc82610b8b565b602082019050919050565b60006020820190508181036000830152610bf081610bb4565b9050919050565b7f4e487b7100000000000000000000000000000000000000000000000000000000600052603260045260246000fd5b7f496e73756666696369656e742066756e64730000000000000000000000000000600082015250565b6000610c5c60128361056e565b9150610c6782610c26565b602082019050919050565b60006020820190508181036000830152610c8b81610c4f565b9050919050565b7f596f752063616e206f6e6c792070757263686173652074776f204e4654730000600082015250565b6000610cc8601e8361056e565b9150610cd382610c92565b602082019050919050565b60006020820190508181036000830152610cf781610cbb565b9050919050565b7f4e487b7100000000000000000000000000000000000000000000000000000000600052601160045260246000fd5b6000610d3882610500565b91507fffffffffffffffffffffffffffffffffffffffffffffffffffffffffffffffff8203610d6a57610d69610cfe565b5b600182019050919050565b610d7e81610842565b82525050565b6000604082019050610d996000830185610d75565b610da660208301846105f3565b939250505056fea2646970667358221220bcd3edce5849cff1ee9e6a4ba1f6580f4f7407787c771d18ef0843d5f70326b264736f6c63430008110033",
  "immutableReferences": {},
  "source": "// SPDX-License-Identifier: MIT\npragma solidity ^0.8.0;\n\ncontract NFTMarketplace {\n    \n    mapping(address => uint) public purchasedCount;\n    \n    struct NFT {\n        string name;\n        string image;\n        uint price;\n    }\n    \n    NFT[] public nfts;\n    \n    event NFTPurchased(address buyer, uint nftIndex);\n    \n    function addNFT(string memory name, string memory image, uint price) public {\n        nfts.push(NFT(name, image, price));\n    }\n    \n    function buyNFT(uint nftIndex) public payable {\n        require(nftIndex < nfts.length, \"Invalid NFT index\");\n        require(msg.value == nfts[nftIndex].price, \"Insufficient funds\");\n        require(purchasedCount[msg.sender] < 2, \"You can only purchase two NFTs\");\n        \n        purchasedCount[msg.sender]++;\n        emit NFTPurchased(msg.sender, nftIndex);\n    }\n    \n    function getNFTCount() public view returns (uint) {\n        return nfts.length;\n    }\n}\n",
  "sourcePath": "/Users/victorgaubin/Desktop/rendu-blockchain/solidity/contracts/NFTMarketplace.sol",
  "compiler": {
    "name": "solc",
    "version": "0.8.17+commit.8df45f5f.Emscripten.clang"
  },
  "schemaVersion": "3.4.10",
  "updatedAt": "2023-04-06T09:13:54.835Z",
  "networkType": "ethereum",
  "devdoc": {
    "kind": "dev",
    "methods": {},
    "version": 1
  },
  "userdoc": {
    "kind": "user",
    "methods": {},
    "version": 1
  }
}