{
    "contractName": "NFTMarketplace",
    "abi": [
        {
            "anonymous": false,
            "inputs": [
                {
                    "indexed": false,
                    "internalType": "address",
                    "name": "buyer",
                    "type": "address"
                },
                {
                    "indexed": false,
                    "internalType": "uint256",
                    "name": "nftIndex",
                    "type": "uint256"
                }
            ],
            "name": "NFTPurchased",
            "type": "event"
        },
        {
            "inputs": [
                {
                    "internalType": "uint256",
                    "name": "",
                    "type": "uint256"
                }
            ],
            "name": "nfts",
            "outputs": [
                {
                    "internalType": "string",
                    "name": "name",
                    "type": "string"
                },
                {
                    "internalType": "string",
                    "name": "image",
                    "type": "string"
                },
                {
                    "internalType": "uint256",
                    "name": "price",
                    "type": "uint256"
                }
            ],
            "stateMutability": "view",
            "type": "function",
            "constant": true
        },
        {
            "inputs": [
                {
                    "internalType": "address",
                    "name": "",
                    "type": "address"
                }
            ],
            "name": "purchasedCount",
            "outputs": [
                {
                    "internalType": "uint256",
                    "name": "",
                    "type": "uint256"
                }
            ],
            "stateMutability": "view",
            "type": "function",
            "constant": true
        },
        {
            "inputs": [
                {
                    "internalType": "string",
                    "name": "name",
                    "type": "string"
                },
                {
                    "internalType": "string",
                    "name": "image",
                    "type": "string"
                },
                {
                    "internalType": "uint256",
                    "name": "price",
                    "type": "uint256"
                }
            ],
            "name": "addNFT",
            "outputs": [],
            "stateMutability": "nonpayable",
            "type": "function"
        },
        {
            "inputs": [
                {
                    "internalType": "uint256",
                    "name": "nftIndex",
                    "type": "uint256"
                }
            ],
            "name": "buyNFT",
            "outputs": [],
            "stateMutability": "payable",
            "type": "function",
            "payable": true
        },
        {
            "inputs": [],
            "name": "getNFTCount",
            "outputs": [
                {
                    "internalType": "uint256",
                    "name": "",
                    "type": "uint256"
                }
            ],
            "stateMutability": "view",
            "type": "function",
            "constant": true
        },
        {
            "inputs": [],
            "name": "getNFTs",
            "outputs": [
                {
                    "components": [
                        {
                            "internalType": "string",
                            "name": "name",
                            "type": "string"
                        },
                        {
                            "internalType": "string",
                            "name": "image",
                            "type": "string"
                        },
                        {
                            "internalType": "uint256",
                            "name": "price",
                            "type": "uint256"
                        }
                    ],
                    "internalType": "struct NFTMarketplace.NFT[]",
                    "name": "",
                    "type": "tuple[]"
                }
            ],
            "stateMutability": "view",
            "type": "function",
            "constant": true
        },
        {
            "inputs": [
                {
                    "internalType": "uint256",
                    "name": "nftIndex",
                    "type": "uint256"
                }
            ],
            "name": "getNFTbyIndex",
            "outputs": [
                {
                    "internalType": "string",
                    "name": "",
                    "type": "string"
                },
                {
                    "internalType": "string",
                    "name": "",
                    "type": "string"
                },
                {
                    "internalType": "uint256",
                    "name": "",
                    "type": "uint256"
                }
            ],
            "stateMutability": "view",
            "type": "function",
            "constant": true
        }
    ],
    "bytecode": "0x608060405234801561001057600080fd5b5061135c806100206000396000f3fe6080604052600436106100705760003560e01c8063391044561161004e578063391044561461011e57806351ed8288146101475780635427963714610163578063ba2a06551461018e57610070565b8063227212f214610075578063265aa621146100a057806333ccecd0146100df575b600080fd5b34801561008157600080fd5b5061008a6101cb565b6040516100979190610a93565b60405180910390f35b3480156100ac57600080fd5b506100c760048036038101906100c29190610af5565b610358565b6040516100d693929190610b7b565b60405180910390f35b3480156100eb57600080fd5b5061010660048036038101906101019190610af5565b6104a2565b60405161011593929190610b7b565b60405180910390f35b34801561012a57600080fd5b5061014560048036038101906101409190610cf5565b61066a565b005b610161600480360381019061015c9190610af5565b6106ed565b005b34801561016f57600080fd5b506101786108ac565b6040516101859190610d80565b60405180910390f35b34801561019a57600080fd5b506101b560048036038101906101b09190610df9565b6108b9565b6040516101c29190610d80565b60405180910390f35b60606001805480602002602001604051908101604052809291908181526020016000905b8282101561034f578382906000526020600020906003020160405180606001604052908160008201805461022290610e55565b80601f016020809104026020016040519081016040528092919081815260200182805461024e90610e55565b801561029b5780601f106102705761010080835404028352916020019161029b565b820191906000526020600020905b81548152906001019060200180831161027e57829003601f168201915b505050505081526020016001820180546102b490610e55565b80601f01602080910402602001604051908101604052809291908181526020018280546102e090610e55565b801561032d5780601f106103025761010080835404028352916020019161032d565b820191906000526020600020905b81548152906001019060200180831161031057829003601f168201915b50505050508152602001600282015481525050815260200190600101906101ef565b50505050905090565b6001818154811061036857600080fd5b906000526020600020906003020160009150905080600001805461038b90610e55565b80601f01602080910402602001604051908101604052809291908181526020018280546103b790610e55565b80156104045780601f106103d957610100808354040283529160200191610404565b820191906000526020600020905b8154815290600101906020018083116103e757829003601f168201915b50505050509080600101805461041990610e55565b80601f016020809104026020016040519081016040528092919081815260200182805461044590610e55565b80156104925780601f1061046757610100808354040283529160200191610492565b820191906000526020600020905b81548152906001019060200180831161047557829003601f168201915b5050505050908060020154905083565b606080600060018054905084106104ee576040517f08c379a00000000000000000000000000000000000000000000000000000000081526004016104e590610ed2565b60405180910390fd5b60006001858154811061050457610503610ef2565b5b906000526020600020906003020160405180606001604052908160008201805461052d90610e55565b80601f016020809104026020016040519081016040528092919081815260200182805461055990610e55565b80156105a65780601f1061057b576101008083540402835291602001916105a6565b820191906000526020600020905b81548152906001019060200180831161058957829003601f168201915b505050505081526020016001820180546105bf90610e55565b80601f01602080910402602001604051908101604052809291908181526020018280546105eb90610e55565b80156106385780601f1061060d57610100808354040283529160200191610638565b820191906000526020600020905b81548152906001019060200180831161061b57829003601f168201915b505050505081526020016002820154815250509050806000015181602001518260400151935093509350509193909250565b6001604051806060016040528085815260200184815260200183815250908060018154018082558091505060019003906000526020600020906003020160009091909190915060008201518160000190816106c591906110cd565b5060208201518160010190816106db91906110cd565b50604082015181600201555050505050565b6001805490508110610734576040517f08c379a000000000000000000000000000000000000000000000000000000000815260040161072b90610ed2565b60405180910390fd5b6001818154811061074857610747610ef2565b5b906000526020600020906003020160020154341461079b576040517f08c379a0000000000000000000000000000000000000000000000000000000008152600401610792906111eb565b60405180910390fd5b60026000803373ffffffffffffffffffffffffffffffffffffffff1673ffffffffffffffffffffffffffffffffffffffff168152602001908152602001600020541061081c576040517f08c379a000000000000000000000000000000000000000000000000000000000815260040161081390611257565b60405180910390fd5b6000803373ffffffffffffffffffffffffffffffffffffffff1673ffffffffffffffffffffffffffffffffffffffff168152602001908152602001600020600081548092919061086b906112a6565b91905055507f7f8aed29394d49180b299699236f142fbd3a78f6d1464929dd17e87b73ebc8d233826040516108a19291906112fd565b60405180910390a150565b6000600180549050905090565b60006020528060005260406000206000915090505481565b600081519050919050565b600082825260208201905092915050565b6000819050602082019050919050565b600081519050919050565b600082825260208201905092915050565b60005b8381101561093757808201518184015260208101905061091c565b60008484015250505050565b6000601f19601f8301169050919050565b600061095f826108fd565b6109698185610908565b9350610979818560208601610919565b61098281610943565b840191505092915050565b6000819050919050565b6109a08161098d565b82525050565b600060608301600083015184820360008601526109c38282610954565b915050602083015184820360208601526109dd8282610954565b91505060408301516109f26040860182610997565b508091505092915050565b6000610a0983836109a6565b905092915050565b6000602082019050919050565b6000610a29826108d1565b610a3381856108dc565b935083602082028501610a45856108ed565b8060005b85811015610a815784840389528151610a6285826109fd565b9450610a6d83610a11565b925060208a01995050600181019050610a49565b50829750879550505050505092915050565b60006020820190508181036000830152610aad8184610a1e565b905092915050565b6000604051905090565b600080fd5b600080fd5b610ad28161098d565b8114610add57600080fd5b50565b600081359050610aef81610ac9565b92915050565b600060208284031215610b0b57610b0a610abf565b5b6000610b1984828501610ae0565b91505092915050565b600082825260208201905092915050565b6000610b3e826108fd565b610b488185610b22565b9350610b58818560208601610919565b610b6181610943565b840191505092915050565b610b758161098d565b82525050565b60006060820190508181036000830152610b958186610b33565b90508181036020830152610ba98185610b33565b9050610bb86040830184610b6c565b949350505050565b600080fd5b600080fd5b7f4e487b7100000000000000000000000000000000000000000000000000000000600052604160045260246000fd5b610c0282610943565b810181811067ffffffffffffffff82111715610c2157610c20610bca565b5b80604052505050565b6000610c34610ab5565b9050610c408282610bf9565b919050565b600067ffffffffffffffff821115610c6057610c5f610bca565b5b610c6982610943565b9050602081019050919050565b82818337600083830152505050565b6000610c98610c9384610c45565b610c2a565b905082815260208101848484011115610cb457610cb3610bc5565b5b610cbf848285610c76565b509392505050565b600082601f830112610cdc57610cdb610bc0565b5b8135610cec848260208601610c85565b91505092915050565b600080600060608486031215610d0e57610d0d610abf565b5b600084013567ffffffffffffffff811115610d2c57610d2b610ac4565b5b610d3886828701610cc7565b935050602084013567ffffffffffffffff811115610d5957610d58610ac4565b5b610d6586828701610cc7565b9250506040610d7686828701610ae0565b9150509250925092565b6000602082019050610d956000830184610b6c565b92915050565b600073ffffffffffffffffffffffffffffffffffffffff82169050919050565b6000610dc682610d9b565b9050919050565b610dd681610dbb565b8114610de157600080fd5b50565b600081359050610df381610dcd565b92915050565b600060208284031215610e0f57610e0e610abf565b5b6000610e1d84828501610de4565b91505092915050565b7f4e487b7100000000000000000000000000000000000000000000000000000000600052602260045260246000fd5b60006002820490506001821680610e6d57607f821691505b602082108103610e8057610e7f610e26565b5b50919050565b7f496e76616c6964204e465420696e646578000000000000000000000000000000600082015250565b6000610ebc601183610b22565b9150610ec782610e86565b602082019050919050565b60006020820190508181036000830152610eeb81610eaf565b9050919050565b7f4e487b7100000000000000000000000000000000000000000000000000000000600052603260045260246000fd5b60008190508160005260206000209050919050565b60006020601f8301049050919050565b600082821b905092915050565b600060088302610f837fffffffffffffffffffffffffffffffffffffffffffffffffffffffffffffffff82610f46565b610f8d8683610f46565b95508019841693508086168417925050509392505050565b6000819050919050565b6000610fca610fc5610fc08461098d565b610fa5565b61098d565b9050919050565b6000819050919050565b610fe483610faf565b610ff8610ff082610fd1565b848454610f53565b825550505050565b600090565b61100d611000565b611018818484610fdb565b505050565b5b8181101561103c57611031600082611005565b60018101905061101e565b5050565b601f8211156110815761105281610f21565b61105b84610f36565b8101602085101561106a578190505b61107e61107685610f36565b83018261101d565b50505b505050565b600082821c905092915050565b60006110a460001984600802611086565b1980831691505092915050565b60006110bd8383611093565b9150826002028217905092915050565b6110d6826108fd565b67ffffffffffffffff8111156110ef576110ee610bca565b5b6110f98254610e55565b611104828285611040565b600060209050601f8311600181146111375760008415611125578287015190505b61112f85826110b1565b865550611197565b601f19841661114586610f21565b60005b8281101561116d57848901518255600182019150602085019450602081019050611148565b8683101561118a5784890151611186601f891682611093565b8355505b6001600288020188555050505b505050505050565b7f496e73756666696369656e742066756e64730000000000000000000000000000600082015250565b60006111d5601283610b22565b91506111e08261119f565b602082019050919050565b60006020820190508181036000830152611204816111c8565b9050919050565b7f596f752063616e206f6e6c792070757263686173652074776f204e4654730000600082015250565b6000611241601e83610b22565b915061124c8261120b565b602082019050919050565b6000602082019050818103600083015261127081611234565b9050919050565b7f4e487b7100000000000000000000000000000000000000000000000000000000600052601160045260246000fd5b60006112b18261098d565b91507fffffffffffffffffffffffffffffffffffffffffffffffffffffffffffffffff82036112e3576112e2611277565b5b600182019050919050565b6112f781610dbb565b82525050565b600060408201905061131260008301856112ee565b61131f6020830184610b6c565b939250505056fea2646970667358221220ea6139b2f70e831712f45d7517a930891f181f1f9834498aba22afd7cc0fdd1264736f6c63430008110033",
    "immutableReferences": {},
    "source": "// SPDX-License-Identifier: MIT\npragma solidity >=0.4.22 <0.9.0;\n\ncontract NFTMarketplace {\n  mapping(address => uint) public purchasedCount;\n    \n    struct NFT {\n        string name;\n        string image;\n        uint price;\n    }\n    \n    NFT[] public nfts;\n    \n    event NFTPurchased(address buyer, uint nftIndex);\n    \n    function addNFT(string memory name, string memory image, uint price) public {\n        nfts.push(NFT(name, image, price));\n    }\n    \n    function buyNFT(uint nftIndex) public payable {\n        require(nftIndex < nfts.length, \"Invalid NFT index\");\n        require(msg.value == nfts[nftIndex].price, \"Insufficient funds\");\n        require(purchasedCount[msg.sender] < 2, \"You can only purchase two NFTs\");\n        \n        purchasedCount[msg.sender]++;\n        emit NFTPurchased(msg.sender, nftIndex);\n    }\n    \n    function getNFTCount() public view returns (uint) {\n        return nfts.length;\n    }\n\n    function getNFTs() public view returns (NFT[] memory) {\n        return nfts;\n    }\n\n    function getNFTbyIndex(uint nftIndex) public view returns (string memory, string memory, uint) {\n        require(nftIndex < nfts.length, \"Invalid NFT index\");\n        NFT memory nft = nfts[nftIndex];\n        return (nft.name, nft.image, nft.price);\n    }\n}\n",
    "sourcePath": "/Users/victorgaubin/Desktop/rendu-blockchain/solidity/project/contracts/NFTMarketplace.sol",
    "compiler": {
        "name": "solc",
        "version": "0.8.17+commit.8df45f5f.Emscripten.clang"
    },
    "schemaVersion": "3.4.10",
    "updatedAt": "2023-04-06T12:01:24.928Z",
    "networkType": "ethereum",
    "devdoc": {
        "kind": "dev",
        "methods": {},
        "version": 1
    },
    "userdoc": {
        "kind": "user",
        "methods": {},
        "version": 1
    }
}